{
  "transactions": [
    {
      "hash": "0x208fcd6b8eaa701254260e1bc3df00d612b0509ce4f43191ae99a1e3ffdeebca",
      "transactionType": "CALL",
      "contractName": null,
      "contractAddress": "0xe1c10984627cabf9a2f910476d0ca30d965bc4c6",
      "function": "mintNft(string)",
      "arguments": [
        "ipfs://QmSsYRx3LpDAb1GZQm7zZ1AuHZjfbPkD6J7s9r41xu1mf8"
      ],
      "transaction": {
        "from": "0x6880c647a9d9988fc5fe7e26e44816771c8fdd8b",
        "to": "0xe1c10984627cabf9a2f910476d0ca30d965bc4c6",
        "gas": "0x3868b",
        "value": "0x2386f26fc10000",
        "input": "0xda86f4a900000000000000000000000000000000000000000000000000000000000000200000000000000000000000000000000000000000000000000000000000000035697066733a2f2f516d5373595278334c7044416231475a516d377a5a314175485a6a6662506b44364a3773397234317875316d66380000000000000000000000",
        "nonce": "0x1c",
        "chainId": "0xaa36a7"
      },
      "additionalContracts": [],
      "isFixedGasLimit": false
    }
  ],
  "receipts": [
    {
      "status": "0x1",
      "cumulativeGasUsed": "0x11a9199",
      "logs": [
        {
          "address": "0xe1c10984627cabf9a2f910476d0ca30d965bc4c6",
          "topics": [
            "0xddf252ad1be2c89b69c2b068fc378daa952ba7f163c4a11628f55a4df523b3ef",
            "0x0000000000000000000000000000000000000000000000000000000000000000",
            "0x0000000000000000000000006880c647a9d9988fc5fe7e26e44816771c8fdd8b",
            "0x0000000000000000000000000000000000000000000000000000000000000000"
          ],
          "data": "0x",
          "blockHash": "0xe336910fd44472572d76287c8cb9a9fe8de684a1144a4459e17030679b5600b4",
          "blockNumber": "0x8fec08",
          "blockTimestamp": "0x68f263b0",
          "transactionHash": "0x208fcd6b8eaa701254260e1bc3df00d612b0509ce4f43191ae99a1e3ffdeebca",
          "transactionIndex": "0x32",
          "logIndex": "0x47",
          "removed": false
        }
      ],
      "logsBloom": "0x00000000000000000000000000000000000000000000000000000000000000000000000000000000000000000000000000000000000000000000000000000000000000000000000000000008000000000000000000000000400000000010000000000000020000000000000000000800000000000000000000000010000000000000000000000000000000000000000000000000000000000000000000000000000000000000000000000000000000000000000000800000000000000000000000000002000001000000000000000000000000000000000000000000000020000000000000000000000000000004000000000010000000000000000000000000",
      "type": "0x2",
      "transactionHash": "0x208fcd6b8eaa701254260e1bc3df00d612b0509ce4f43191ae99a1e3ffdeebca",
      "transactionIndex": "0x32",
      "blockHash": "0xe336910fd44472572d76287c8cb9a9fe8de684a1144a4459e17030679b5600b4",
      "blockNumber": "0x8fec08",
      "gasUsed": "0x28d6e",
      "effectiveGasPrice": "0xf424e",
      "from": "0x6880c647a9d9988fc5fe7e26e44816771c8fdd8b",
      "to": "0xe1c10984627cabf9a2f910476d0ca30d965bc4c6",
      "contractAddress": null
    }
  ],
  "libraries": [],
  "pending": [],
  "returns": {},
  "timestamp": 1760715697958,
  "chain": 11155111,
  "commit": null
}